{
  "_format": "hh-sol-artifact-1",
  "contractName": "sonnePositionManager",
  "sourceName": "contracts/sonnePositionManger.sol",
  "abi": [
    {
      "inputs": [
        {
          "internalType": "address",
          "name": "comptrollerAddress",
          "type": "address"
        },
        {
          "internalType": "address",
          "name": "veloRouterAddress",
          "type": "address"
        },
        {
          "internalType": "address",
          "name": "unitrollerAddress",
          "type": "address"
        }
      ],
      "stateMutability": "nonpayable",
      "type": "constructor"
    },
    {
      "anonymous": false,
      "inputs": [
        {
          "indexed": true,
          "internalType": "address",
          "name": "previousOwner",
          "type": "address"
        },
        {
          "indexed": true,
          "internalType": "address",
          "name": "newOwner",
          "type": "address"
        }
      ],
      "name": "OwnershipTransferred",
      "type": "event"
    },
    {
      "inputs": [
        {
          "internalType": "address",
          "name": "SONNEAddress",
          "type": "address"
        },
        {
          "internalType": "address",
          "name": "soTokenAddress",
          "type": "address"
        },
        {
          "internalType": "bool",
          "name": "isSimpleSwap",
          "type": "bool"
        },
        {
          "internalType": "bool",
          "name": "isStable",
          "type": "bool"
        },
        {
          "internalType": "uint256",
          "name": "amountOutMin",
          "type": "uint256"
        },
        {
          "components": [
            {
              "internalType": "address",
              "name": "from",
              "type": "address"
            },
            {
              "internalType": "address",
              "name": "to",
              "type": "address"
            },
            {
              "internalType": "bool",
              "name": "stable",
              "type": "bool"
            }
          ],
          "internalType": "struct IveloRouter.route[]",
          "name": "routes",
          "type": "tuple[]"
        },
        {
          "internalType": "uint256",
          "name": "deadline",
          "type": "uint256"
        }
      ],
      "name": "claimAndReinvest",
      "outputs": [],
      "stateMutability": "nonpayable",
      "type": "function"
    },
    {
      "inputs": [
        {
          "internalType": "address",
          "name": "erc20address",
          "type": "address"
        },
        {
          "internalType": "uint256",
          "name": "collateralFactorNumeratorXe18",
          "type": "uint256"
        }
      ],
      "name": "closePosition",
      "outputs": [],
      "stateMutability": "nonpayable",
      "type": "function"
    },
    {
      "inputs": [
        {
          "internalType": "address",
          "name": "erc20Address",
          "type": "address"
        },
        {
          "internalType": "address",
          "name": "soTokenAddress",
          "type": "address"
        }
      ],
      "name": "listSoToken",
      "outputs": [],
      "stateMutability": "nonpayable",
      "type": "function"
    },
    {
      "inputs": [
        {
          "internalType": "uint256",
          "name": "initialAmount",
          "type": "uint256"
        },
        {
          "internalType": "uint8",
          "name": "leverage",
          "type": "uint8"
        },
        {
          "internalType": "uint256",
          "name": "collateralFactorNumeratorXe18",
          "type": "uint256"
        },
        {
          "internalType": "address",
          "name": "erc20address",
          "type": "address"
        }
      ],
      "name": "openPosition",
      "outputs": [],
      "stateMutability": "nonpayable",
      "type": "function"
    },
    {
      "inputs": [],
      "name": "owner",
      "outputs": [
        {
          "internalType": "address",
          "name": "",
          "type": "address"
        }
      ],
      "stateMutability": "view",
      "type": "function"
    },
    {
      "inputs": [],
      "name": "renounceOwnership",
      "outputs": [],
      "stateMutability": "nonpayable",
      "type": "function"
    },
    {
      "inputs": [
        {
          "internalType": "address",
          "name": "tokenAddress",
          "type": "address"
        }
      ],
      "name": "returnERC20",
      "outputs": [],
      "stateMutability": "nonpayable",
      "type": "function"
    },
    {
      "inputs": [
        {
          "internalType": "address",
          "name": "newOwner",
          "type": "address"
        }
      ],
      "name": "transferOwnership",
      "outputs": [],
      "stateMutability": "nonpayable",
      "type": "function"
    }
  ],
  "bytecode": "0x60806040523480156200001157600080fd5b5060405162002b2538038062002b25833981810160405281019062000037919062000206565b620000576200004b6200012360201b60201c565b6200012b60201b60201c565b82600460006101000a81548173ffffffffffffffffffffffffffffffffffffffff021916908373ffffffffffffffffffffffffffffffffffffffff16021790555081600560006101000a81548173ffffffffffffffffffffffffffffffffffffffff021916908373ffffffffffffffffffffffffffffffffffffffff16021790555080600660006101000a81548173ffffffffffffffffffffffffffffffffffffffff021916908373ffffffffffffffffffffffffffffffffffffffff160217905550505050620002aa565b600033905090565b60008060009054906101000a900473ffffffffffffffffffffffffffffffffffffffff169050816000806101000a81548173ffffffffffffffffffffffffffffffffffffffff021916908373ffffffffffffffffffffffffffffffffffffffff1602179055508173ffffffffffffffffffffffffffffffffffffffff168173ffffffffffffffffffffffffffffffffffffffff167f8be0079c531659141344cd1fd0a4f28419497f9722a3daafe3b4186f6b6457e060405160405180910390a35050565b600081519050620002008162000290565b92915050565b6000806000606084860312156200021c57600080fd5b60006200022c86828701620001ef565b93505060206200023f86828701620001ef565b92505060406200025286828701620001ef565b9150509250925092565b6000620002698262000270565b9050919050565b600073ffffffffffffffffffffffffffffffffffffffff82169050919050565b6200029b816200025c565b8114620002a757600080fd5b50565b61286b80620002ba6000396000f3fe608060405234801561001057600080fd5b50600436106100885760003560e01c8063b8a4241e1161005b578063b8a4241e146100ed578063c729366814610109578063d7cff5ef14610125578063f2fde38b1461014157610088565b806348fe44f51461008d578063715018a6146100a9578063742fe1f8146100b35780638da5cb5b146100cf575b600080fd5b6100a760048036038101906100a29190611ca6565b61015d565b005b6100b1610772565b005b6100cd60048036038101906100c89190611d5c565b610786565b005b6100d7610ce6565b6040516100e4919061224a565b60405180910390f35b61010760048036038101906101029190611e8e565b610d0f565b005b610123600480360381019061011e9190611c18565b61106f565b005b61013f600480360381019061013a9190611c6a565b611196565b005b61015b60048036038101906101569190611c18565b611625565b005b6101656116a9565b6000600360008873ffffffffffffffffffffffffffffffffffffffff1673ffffffffffffffffffffffffffffffffffffffff16815260200190815260200160002060009054906101000a900473ffffffffffffffffffffffffffffffffffffffff1690506000600167ffffffffffffffff81111561020c577f4e487b7100000000000000000000000000000000000000000000000000000000600052604160045260246000fd5b60405190808252806020026020018201604052801561023a5781602001602082028036833780820191505090505b5090508781600081518110610278577f4e487b7100000000000000000000000000000000000000000000000000000000600052603260045260246000fd5b602002602001019073ffffffffffffffffffffffffffffffffffffffff16908173ffffffffffffffffffffffffffffffffffffffff1681525050600660009054906101000a900473ffffffffffffffffffffffffffffffffffffffff1673ffffffffffffffffffffffffffffffffffffffff16631c3db2e030836040518363ffffffff1660e01b815260040161030f92919061229c565b600060405180830381600087803b15801561032957600080fd5b505af115801561033d573d6000803e3d6000fd5b5050505060008973ffffffffffffffffffffffffffffffffffffffff166370a08231306040518263ffffffff1660e01b815260040161037c919061224a565b60206040518083038186803b15801561039457600080fd5b505afa1580156103a8573d6000803e3d6000fd5b505050506040513d601f19601f820116820180604052508101906103cc9190611e02565b90508973ffffffffffffffffffffffffffffffffffffffff1663095ea7b3600560009054906101000a900473ffffffffffffffffffffffffffffffffffffffff16836040518363ffffffff1660e01b815260040161042b9291906122f5565b602060405180830381600087803b15801561044557600080fd5b505af1158015610459573d6000803e3d6000fd5b505050506040513d601f19601f8201168201806040525081019061047d9190611dd9565b5060606001151589151514156105cf57600560009054906101000a900473ffffffffffffffffffffffffffffffffffffffff1673ffffffffffffffffffffffffffffffffffffffff166313dcfc5983898e8873ffffffffffffffffffffffffffffffffffffffff16636f307dc36040518163ffffffff1660e01b815260040160206040518083038186803b15801561051457600080fd5b505afa158015610528573d6000803e3d6000fd5b505050506040513d601f19601f8201168201806040525081019061054c9190611c41565b8d308c6040518863ffffffff1660e01b815260040161057197969594939291906123db565b600060405180830381600087803b15801561058b57600080fd5b505af115801561059f573d6000803e3d6000fd5b505050506040513d6000823e3d601f19601f820116820180604052508101906105c89190611d98565b905061068c565b600560009054906101000a900473ffffffffffffffffffffffffffffffffffffffff1673ffffffffffffffffffffffffffffffffffffffff1663f41766d8838989308a6040518663ffffffff1660e01b815260040161063295949392919061244a565b600060405180830381600087803b15801561064c57600080fd5b505af1158015610660573d6000803e3d6000fd5b505050506040513d6000823e3d601f19601f820116820180604052508101906106899190611d98565b90505b8373ffffffffffffffffffffffffffffffffffffffff1663a0712d6882600184516106b79190612663565b815181106106ee577f4e487b7100000000000000000000000000000000000000000000000000000000600052603260045260246000fd5b60200260200101516040518263ffffffff1660e01b815260040161071291906123c0565b602060405180830381600087803b15801561072c57600080fd5b505af1158015610740573d6000803e3d6000fd5b505050506040513d601f19601f820116820180604052508101906107649190611e02565b505050505050505050505050565b61077a6116a9565b6107846000611727565b565b61078e6116a9565b6000600160008473ffffffffffffffffffffffffffffffffffffffff1673ffffffffffffffffffffffffffffffffffffffff16815260200190815260200160002060009054906101000a900473ffffffffffffffffffffffffffffffffffffffff1690506000600360008373ffffffffffffffffffffffffffffffffffffffff1673ffffffffffffffffffffffffffffffffffffffff16815260200190815260200160002060009054906101000a900473ffffffffffffffffffffffffffffffffffffffff1690506000806000808473ffffffffffffffffffffffffffffffffffffffff1663c37f68e2306040518263ffffffff1660e01b8152600401610895919061224a565b60806040518083038186803b1580156108ad57600080fd5b505afa1580156108c1573d6000803e3d6000fd5b505050506040513d601f19601f820116820180604052508101906108e59190611e2b565b8094508195508296508397505050505060008414610938576040517f08c379a000000000000000000000000000000000000000000000000000000000815260040161092f906123a0565b60405180910390fd5b6000670de0b6b3a7640000848361094f9190612609565b61095991906125d8565b90506000805b6000851115610bbf5784670de0b6b3a76400008b8561097e9190612609565b61098891906125d8565b6109929190612663565b91508773ffffffffffffffffffffffffffffffffffffffff1663852a12e3836040518263ffffffff1660e01b81526004016109cd91906123c0565b602060405180830381600087803b1580156109e757600080fd5b505af11580156109fb573d6000803e3d6000fd5b505050506040513d601f19601f82011682018060405250810190610a1f9190611e02565b50848211610a2d5781610a2f565b845b90508773ffffffffffffffffffffffffffffffffffffffff16630e752702826040518263ffffffff1660e01b8152600401610a6a91906123c0565b602060405180830381600087803b158015610a8457600080fd5b505af1158015610a98573d6000803e3d6000fd5b505050506040513d601f19601f82011682018060405250810190610abc9190611e02565b508773ffffffffffffffffffffffffffffffffffffffff1663c37f68e2306040518263ffffffff1660e01b8152600401610af6919061224a565b60806040518083038186803b158015610b0e57600080fd5b505afa158015610b22573d6000803e3d6000fd5b505050506040513d601f19601f82011682018060405250810190610b469190611e2b565b809750819850829950839a505050505060008714610b99576040517f08c379a0000000000000000000000000000000000000000000000000000000008152600401610b90906123a0565b60405180910390fd5b670de0b6b3a76400008685610bae9190612609565b610bb891906125d8565b925061095f565b60008873ffffffffffffffffffffffffffffffffffffffff166370a08231306040518263ffffffff1660e01b8152600401610bfa919061224a565b60206040518083038186803b158015610c1257600080fd5b505afa158015610c26573d6000803e3d6000fd5b505050506040513d601f19601f82011682018060405250810190610c4a9190611e02565b90508873ffffffffffffffffffffffffffffffffffffffff1663852a12e3826040518263ffffffff1660e01b8152600401610c8591906123c0565b602060405180830381600087803b158015610c9f57600080fd5b505af1158015610cb3573d6000803e3d6000fd5b505050506040513d601f19601f82011682018060405250810190610cd79190611e02565b50505050505050505050505050565b60008060009054906101000a900473ffffffffffffffffffffffffffffffffffffffff16905090565b610d176116a9565b600073ffffffffffffffffffffffffffffffffffffffff16600260008373ffffffffffffffffffffffffffffffffffffffff1673ffffffffffffffffffffffffffffffffffffffff16815260200190815260200160002060009054906101000a900473ffffffffffffffffffffffffffffffffffffffff1673ffffffffffffffffffffffffffffffffffffffff161415610de6576040517f08c379a0000000000000000000000000000000000000000000000000000000008152600401610ddd90612340565b60405180910390fd5b6000600260008373ffffffffffffffffffffffffffffffffffffffff1673ffffffffffffffffffffffffffffffffffffffff16815260200190815260200160002060009054906101000a900473ffffffffffffffffffffffffffffffffffffffff1690506000600160008473ffffffffffffffffffffffffffffffffffffffff1673ffffffffffffffffffffffffffffffffffffffff16815260200190815260200160002060009054906101000a900473ffffffffffffffffffffffffffffffffffffffff1690506000600360008373ffffffffffffffffffffffffffffffffffffffff1673ffffffffffffffffffffffffffffffffffffffff16815260200190815260200160002060009054906101000a900473ffffffffffffffffffffffffffffffffffffffff1690508273ffffffffffffffffffffffffffffffffffffffff166323b872dd33308a6040518463ffffffff1660e01b8152600401610f4f93929190612265565b602060405180830381600087803b158015610f6957600080fd5b505af1158015610f7d573d6000803e3d6000fd5b505050506040513d601f19601f82011682018060405250810190610fa19190611dd9565b50600087905060005b8760ff168160ff161015610fd857610fc38288866117eb565b91508080610fd090612722565b915050610faa565b508173ffffffffffffffffffffffffffffffffffffffff1663a0712d68826040518263ffffffff1660e01b815260040161101291906123c0565b602060405180830381600087803b15801561102c57600080fd5b505af1158015611040573d6000803e3d6000fd5b505050506040513d601f19601f820116820180604052508101906110649190611e02565b505050505050505050565b6110776116a9565b60008190508073ffffffffffffffffffffffffffffffffffffffff1663a9059cbb338373ffffffffffffffffffffffffffffffffffffffff166370a08231306040518263ffffffff1660e01b81526004016110d2919061224a565b60206040518083038186803b1580156110ea57600080fd5b505afa1580156110fe573d6000803e3d6000fd5b505050506040513d601f19601f820116820180604052508101906111229190611e02565b6040518363ffffffff1660e01b815260040161113f9291906122f5565b602060405180830381600087803b15801561115957600080fd5b505af115801561116d573d6000803e3d6000fd5b505050506040513d601f19601f820116820180604052508101906111919190611dd9565b505050565b61119e6116a9565b80600160008473ffffffffffffffffffffffffffffffffffffffff1673ffffffffffffffffffffffffffffffffffffffff16815260200190815260200160002060006101000a81548173ffffffffffffffffffffffffffffffffffffffff021916908373ffffffffffffffffffffffffffffffffffffffff16021790555081600260008473ffffffffffffffffffffffffffffffffffffffff1673ffffffffffffffffffffffffffffffffffffffff16815260200190815260200160002060006101000a81548173ffffffffffffffffffffffffffffffffffffffff021916908373ffffffffffffffffffffffffffffffffffffffff160217905550600260008373ffffffffffffffffffffffffffffffffffffffff1673ffffffffffffffffffffffffffffffffffffffff16815260200190815260200160002060009054906101000a900473ffffffffffffffffffffffffffffffffffffffff1673ffffffffffffffffffffffffffffffffffffffff1663095ea7b3600160008573ffffffffffffffffffffffffffffffffffffffff1673ffffffffffffffffffffffffffffffffffffffff16815260200190815260200160002060009054906101000a900473ffffffffffffffffffffffffffffffffffffffff167fffffffffffffffffffffffffffffffffffffffffffffffffffffffffffffffff6040518363ffffffff1660e01b81526004016113b39291906122cc565b602060405180830381600087803b1580156113cd57600080fd5b505af11580156113e1573d6000803e3d6000fd5b505050506040513d601f19601f820116820180604052508101906114059190611dd9565b5080600360008373ffffffffffffffffffffffffffffffffffffffff1673ffffffffffffffffffffffffffffffffffffffff16815260200190815260200160002060006101000a81548173ffffffffffffffffffffffffffffffffffffffff021916908373ffffffffffffffffffffffffffffffffffffffff1602179055506000600167ffffffffffffffff8111156114c7577f4e487b7100000000000000000000000000000000000000000000000000000000600052604160045260246000fd5b6040519080825280602002602001820160405280156114f55781602001602082028036833780820191505090505b5090508181600081518110611533577f4e487b7100000000000000000000000000000000000000000000000000000000600052603260045260246000fd5b602002602001019073ffffffffffffffffffffffffffffffffffffffff16908173ffffffffffffffffffffffffffffffffffffffff1681525050600460009054906101000a900473ffffffffffffffffffffffffffffffffffffffff1673ffffffffffffffffffffffffffffffffffffffff1663c2998238826040518263ffffffff1660e01b81526004016115c8919061231e565b600060405180830381600087803b1580156115e257600080fd5b505af11580156115f6573d6000803e3d6000fd5b505050506040513d6000823e3d601f19601f8201168201806040525081019061161f9190611d98565b50505050565b61162d6116a9565b600073ffffffffffffffffffffffffffffffffffffffff168173ffffffffffffffffffffffffffffffffffffffff16141561169d576040517f08c379a000000000000000000000000000000000000000000000000000000000815260040161169490612360565b60405180910390fd5b6116a681611727565b50565b6116b16119f1565b73ffffffffffffffffffffffffffffffffffffffff166116cf610ce6565b73ffffffffffffffffffffffffffffffffffffffff1614611725576040517f08c379a000000000000000000000000000000000000000000000000000000000815260040161171c90612380565b60405180910390fd5b565b60008060009054906101000a900473ffffffffffffffffffffffffffffffffffffffff169050816000806101000a81548173ffffffffffffffffffffffffffffffffffffffff021916908373ffffffffffffffffffffffffffffffffffffffff1602179055508173ffffffffffffffffffffffffffffffffffffffff168173ffffffffffffffffffffffffffffffffffffffff167f8be0079c531659141344cd1fd0a4f28419497f9722a3daafe3b4186f6b6457e060405160405180910390a35050565b6000600360008373ffffffffffffffffffffffffffffffffffffffff1673ffffffffffffffffffffffffffffffffffffffff16815260200190815260200160002060009054906101000a900473ffffffffffffffffffffffffffffffffffffffff1673ffffffffffffffffffffffffffffffffffffffff1663a0712d68856040518263ffffffff1660e01b815260040161188591906123c0565b602060405180830381600087803b15801561189f57600080fd5b505af11580156118b3573d6000803e3d6000fd5b505050506040513d601f19601f820116820180604052508101906118d79190611e02565b506000670de0b6b3a764000084866118ef9190612609565b6118f991906125d8565b9050600360008473ffffffffffffffffffffffffffffffffffffffff1673ffffffffffffffffffffffffffffffffffffffff16815260200190815260200160002060009054906101000a900473ffffffffffffffffffffffffffffffffffffffff1673ffffffffffffffffffffffffffffffffffffffff1663c5ebeaec826040518263ffffffff1660e01b815260040161199391906123c0565b602060405180830381600087803b1580156119ad57600080fd5b505af11580156119c1573d6000803e3d6000fd5b505050506040513d601f19601f820116820180604052508101906119e59190611e02565b50809150509392505050565b600033905090565b6000611a0c611a07846124d5565b6124a4565b90508083825260208201905082856060860282011115611a2b57600080fd5b60005b85811015611a5b5781611a418882611b79565b845260208401935060608301925050600181019050611a2e565b5050509392505050565b6000611a78611a7384612501565b6124a4565b90508083825260208201905082856020860282011115611a9757600080fd5b60005b85811015611ac75781611aad8882611bee565b845260208401935060208301925050600181019050611a9a565b5050509392505050565b600081359050611ae0816127d9565b92915050565b600081519050611af5816127d9565b92915050565b600082601f830112611b0c57600080fd5b8135611b1c8482602086016119f9565b91505092915050565b600082601f830112611b3657600080fd5b8151611b46848260208601611a65565b91505092915050565b600081359050611b5e816127f0565b92915050565b600081519050611b73816127f0565b92915050565b600060608284031215611b8b57600080fd5b611b9560606124a4565b90506000611ba584828501611ad1565b6000830152506020611bb984828501611ad1565b6020830152506040611bcd84828501611b4f565b60408301525092915050565b600081359050611be881612807565b92915050565b600081519050611bfd81612807565b92915050565b600081359050611c128161281e565b92915050565b600060208284031215611c2a57600080fd5b6000611c3884828501611ad1565b91505092915050565b600060208284031215611c5357600080fd5b6000611c6184828501611ae6565b91505092915050565b60008060408385031215611c7d57600080fd5b6000611c8b85828601611ad1565b9250506020611c9c85828601611ad1565b9150509250929050565b600080600080600080600060e0888a031215611cc157600080fd5b6000611ccf8a828b01611ad1565b9750506020611ce08a828b01611ad1565b9650506040611cf18a828b01611b4f565b9550506060611d028a828b01611b4f565b9450506080611d138a828b01611bd9565b93505060a088013567ffffffffffffffff811115611d3057600080fd5b611d3c8a828b01611afb565b92505060c0611d4d8a828b01611bd9565b91505092959891949750929550565b60008060408385031215611d6f57600080fd5b6000611d7d85828601611ad1565b9250506020611d8e85828601611bd9565b9150509250929050565b600060208284031215611daa57600080fd5b600082015167ffffffffffffffff811115611dc457600080fd5b611dd084828501611b25565b91505092915050565b600060208284031215611deb57600080fd5b6000611df984828501611b64565b91505092915050565b600060208284031215611e1457600080fd5b6000611e2284828501611bee565b91505092915050565b60008060008060808587031215611e4157600080fd5b6000611e4f87828801611bee565b9450506020611e6087828801611bee565b9350506040611e7187828801611bee565b9250506060611e8287828801611bee565b91505092959194509250565b60008060008060808587031215611ea457600080fd5b6000611eb287828801611bd9565b9450506020611ec387828801611c03565b9350506040611ed487828801611bd9565b9250506060611ee587828801611ad1565b91505092959194509250565b6000611efd8383611f39565b60208301905092915050565b6000611f15838361208f565b60208301905092915050565b6000611f2d83836121f9565b60608301905092915050565b611f4281612697565b82525050565b611f5181612697565b82525050565b6000611f628261255d565b611f6c81856125a5565b9350611f778361252d565b8060005b83811015611fa8578151611f8f8882611ef1565b9750611f9a8361257e565b925050600181019050611f7b565b5085935050505092915050565b6000611fc082612568565b611fca81856125a5565b9350611fd58361253d565b8060005b83811015612006578151611fed8882611f09565b9750611ff88361258b565b925050600181019050611fd9565b5085935050505092915050565b600061201e82612573565b61202881856125b6565b93506120338361254d565b8060005b8381101561206457815161204b8882611f21565b975061205683612598565b925050600181019050612037565b5085935050505092915050565b61207a816126a9565b82525050565b612089816126a9565b82525050565b612098816126ec565b82525050565b6120a781612710565b82525050565b60006120ba6010836125c7565b91507f746f6b656e206e6f74206c6973746564000000000000000000000000000000006000830152602082019050919050565b60006120fa6026836125c7565b91507f4f776e61626c653a206e6577206f776e657220697320746865207a65726f206160008301527f64647265737300000000000000000000000000000000000000000000000000006020830152604082019050919050565b60006121606020836125c7565b91507f4f776e61626c653a2063616c6c6572206973206e6f7420746865206f776e65726000830152602082019050919050565b60006121a06021836125c7565b91507f6572726f7220696e2067657474696e67206163636f756e7420736e617073686f60008301527f74000000000000000000000000000000000000000000000000000000000000006020830152604082019050919050565b60608201600082015161220f6000850182611f39565b5060208201516122226020850182611f39565b5060408201516122356040850182612071565b50505050565b612244816126d5565b82525050565b600060208201905061225f6000830184611f48565b92915050565b600060608201905061227a6000830186611f48565b6122876020830185611f48565b612294604083018461223b565b949350505050565b60006040820190506122b16000830185611f48565b81810360208301526122c38184611fb5565b90509392505050565b60006040820190506122e16000830185611f48565b6122ee602083018461209e565b9392505050565b600060408201905061230a6000830185611f48565b612317602083018461223b565b9392505050565b600060208201905081810360008301526123388184611f57565b905092915050565b60006020820190508181036000830152612359816120ad565b9050919050565b60006020820190508181036000830152612379816120ed565b9050919050565b6000602082019050818103600083015261239981612153565b9050919050565b600060208201905081810360008301526123b981612193565b9050919050565b60006020820190506123d5600083018461223b565b92915050565b600060e0820190506123f0600083018a61223b565b6123fd602083018961223b565b61240a6040830188611f48565b6124176060830187611f48565b6124246080830186612080565b61243160a0830185611f48565b61243e60c083018461223b565b98975050505050505050565b600060a08201905061245f600083018861223b565b61246c602083018761223b565b818103604083015261247e8186612013565b905061248d6060830185611f48565b61249a608083018461223b565b9695505050505050565b6000604051905081810181811067ffffffffffffffff821117156124cb576124ca6127aa565b5b8060405250919050565b600067ffffffffffffffff8211156124f0576124ef6127aa565b5b602082029050602081019050919050565b600067ffffffffffffffff82111561251c5761251b6127aa565b5b602082029050602081019050919050565b6000819050602082019050919050565b6000819050602082019050919050565b6000819050602082019050919050565b600081519050919050565b600081519050919050565b600081519050919050565b6000602082019050919050565b6000602082019050919050565b6000602082019050919050565b600082825260208201905092915050565b600082825260208201905092915050565b600082825260208201905092915050565b60006125e3826126d5565b91506125ee836126d5565b9250826125fe576125fd61277b565b5b828204905092915050565b6000612614826126d5565b915061261f836126d5565b9250817fffffffffffffffffffffffffffffffffffffffffffffffffffffffffffffffff04831182151516156126585761265761274c565b5b828202905092915050565b600061266e826126d5565b9150612679836126d5565b92508282101561268c5761268b61274c565b5b828203905092915050565b60006126a2826126b5565b9050919050565b60008115159050919050565b600073ffffffffffffffffffffffffffffffffffffffff82169050919050565b6000819050919050565b600060ff82169050919050565b60006126f7826126fe565b9050919050565b6000612709826126b5565b9050919050565b600061271b826126d5565b9050919050565b600061272d826126df565b915060ff8214156127415761274061274c565b5b600182019050919050565b7f4e487b7100000000000000000000000000000000000000000000000000000000600052601160045260246000fd5b7f4e487b7100000000000000000000000000000000000000000000000000000000600052601260045260246000fd5b7f4e487b7100000000000000000000000000000000000000000000000000000000600052604160045260246000fd5b6127e281612697565b81146127ed57600080fd5b50565b6127f9816126a9565b811461280457600080fd5b50565b612810816126d5565b811461281b57600080fd5b50565b612827816126df565b811461283257600080fd5b5056fea264697066735822122065caa9474a0734e91107d823b83b649ce38f0afbd56e346fc010692ec537ccf364736f6c63430008000033",
  "linkReferences": {},
  "deployedLinkReferences": {}
}